{
  "contractName": "Accessors_3",
  "abi": [
    {
      "inputs": [
        {
          "internalType": "address",
          "name": "addr",
          "type": "address"
        }
      ],
      "name": "func",
      "outputs": [],
      "stateMutability": "nonpayable",
      "type": "function"
    }
  ],
  "bytecode": "0x608060405234801561001057600080fd5b50610294806100206000396000f3fe608060405234801561001057600080fd5b506004361061002b5760003560e01c8063b8550dc714610030575b600080fd5b61004a600480360381019061004591906101a0565b61004c565b005b60008173ffffffffffffffffffffffffffffffffffffffff166040516024016040516020818303038152906040527fbfa814b5000000000000000000000000000000000000000000000000000000007bffffffffffffffffffffffffffffffffffffffffffffffffffffffff19166020820180517bffffffffffffffffffffffffffffffffffffffffffffffffffffffff83818316178352505050506040516100f59190610247565b600060405180830381855af49150503d8060008114610130576040519150601f19603f3d011682016040523d82523d6000602084013e610135565b606091505b505090505050565b600080fd5b600073ffffffffffffffffffffffffffffffffffffffff82169050919050565b600061016d82610142565b9050919050565b61017d81610162565b811461018857600080fd5b50565b60008135905061019a81610174565b92915050565b6000602082840312156101b6576101b561013d565b5b60006101c48482850161018b565b91505092915050565b600081519050919050565b600081905092915050565b60005b838110156102015780820151818401526020810190506101e6565b83811115610210576000848401525b50505050565b6000610221826101cd565b61022b81856101d8565b935061023b8185602086016101e3565b80840191505092915050565b60006102538284610216565b91508190509291505056fea26469706673582212208fc2474f1f80118609cc62e5eab0c01bd319ad1889b066b5908fc2a2bcafcb0664736f6c63430008090033",
  "immutableReferences": {},
  "source": "// SPDX-License-Identifier: MIT\r\npragma solidity 0.8.9;\r\n\r\n/*\r\na_1 - 76975   - 21186 \r\na_2 - 76975   - 21186\r\na_3 - 195493   ( call public 25344 ) (call public)\r\na_4 - 189271   \r\na_5 - 117763  \r\na_7 - 117763 \r\na_7 - 347056   - (4 exec 28591 ) (5 exec 27479 ) ( 6 exec 27479 )\r\na_8 - 67066  \r\na_9 - 67066 \r\na_10 76975 \r\na_11 76975 \r\n*/\r\n\r\n// uint8 storage and setter\r\ncontract Accessors_1 {\r\n    //anyone can call me\r\n    function func() public {\r\n\r\n    }\r\n}\r\n\r\n//only contracts can call me\r\ncontract Accessors_2 {\r\n    function func() external {\r\n\r\n    }\r\n}\r\n\r\n\r\n\r\ncontract Accessors_3 {\r\n    function func(address addr) public {\r\n       (bool success,) = addr.delegatecall(abi.encodeWithSignature(\"func()\"));\r\n    }\r\n}\r\n\r\ncontract Accessors_4 {\r\n    function func(uint256[] memory) public {\r\n      \r\n    }\r\n}\r\n\r\n// this shouldn't be possible? but remix allows it\r\ncontract Accessors_5 {\r\n    function func(uint256[] calldata arr) public {\r\n      \r\n    }\r\n}\r\n\r\ncontract Accessors_6 {\r\n    function func(uint256[] calldata arr) external {\r\n      \r\n    }\r\n}\r\n\r\ncontract Accessors_7 {\r\n    \r\n    function func(address addr) public {\r\n      uint[] memory newArray = new uint[](3);\r\n      newArray[0] = 1;\r\n      newArray[1] = 2;\r\n      newArray[2] = 3;\r\n      \r\n      (bool success,) = addr.delegatecall(abi.encodeWithSignature(\"func(uint256[])\",newArray));\r\n      if(!success){\r\n          revert(\"boom\");\r\n      }\r\n    }\r\n}\r\n\r\n//only private or parents can call me\r\ncontract Accessors_8 {\r\n    function func() internal {\r\n\r\n    }\r\n}\r\n\r\n//only this contract can call me\r\ncontract Accessors_9 {\r\n    function func() private {\r\n\r\n    }\r\n}\r\n\r\ncontract Accessors_10 {\r\n    function func() public view {\r\n\r\n    }\r\n}\r\n\r\n\r\ncontract Accessors_11 {\r\n    function func() public pure {\r\n\r\n    }\r\n}",
  "sourcePath": "D:/code/Consensys/joeMS/SolidityGasSamples/contracts/Functions_And_Contract_Execution/Accessors.sol",
  "compiler": {
    "name": "solc",
    "version": "0.8.9+commit.e5eed63a.Emscripten.clang"
  },
  "schemaVersion": "3.3.4",
  "updatedAt": "2021-11-07T00:16:39.953Z",
  "devdoc": {
    "kind": "dev",
    "methods": {},
    "version": 1
  },
  "userdoc": {
    "kind": "user",
    "methods": {},
    "version": 1
  }
}