{
  "contractName": "Accessors_11",
  "abi": [
    {
      "inputs": [],
      "name": "func",
      "outputs": [],
      "stateMutability": "pure",
      "type": "function"
    }
  ],
  "bytecode": "0x6080604052348015600f57600080fd5b50606d80601d6000396000f3fe6080604052348015600f57600080fd5b506004361060285760003560e01c8063bfa814b514602d575b600080fd5b60336035565b005b56fea2646970667358221220fc54ef69762ccd96429372ecc90652ba29a32724115e9fe7047d85391f16532364736f6c63430008090033",
  "immutableReferences": {},
  "source": "// SPDX-License-Identifier: MIT\r\npragma solidity 0.8.9;\r\n\r\n/*\r\na_1 - 76975   - 21186 \r\na_2 - 76975   - 21186\r\na_3 - 195493   ( call public 25344 ) (call public)\r\na_4 - 189271   \r\na_5 - 117763  \r\na_7 - 117763 \r\na_7 - 347056   - (4 exec 28591 ) (5 exec 27479 ) ( 6 exec 27479 )\r\na_8 - 67066  \r\na_9 - 67066 \r\na_10 76975 \r\na_11 76975 \r\n*/\r\n\r\n// uint8 storage and setter\r\ncontract Accessors_1 {\r\n    //anyone can call me\r\n    function func() public {\r\n\r\n    }\r\n}\r\n\r\n//only contracts can call me\r\ncontract Accessors_2 {\r\n    function func() external {\r\n\r\n    }\r\n}\r\n\r\n\r\n\r\ncontract Accessors_3 {\r\n    function func(address addr) public {\r\n       (bool success,) = addr.delegatecall(abi.encodeWithSignature(\"func()\"));\r\n    }\r\n}\r\n\r\ncontract Accessors_4 {\r\n    function func(uint256[] memory) public {\r\n      \r\n    }\r\n}\r\n\r\n// this shouldn't be possible? but remix allows it\r\ncontract Accessors_5 {\r\n    function func(uint256[] calldata arr) public {\r\n      \r\n    }\r\n}\r\n\r\ncontract Accessors_6 {\r\n    function func(uint256[] calldata arr) external {\r\n      \r\n    }\r\n}\r\n\r\ncontract Accessors_7 {\r\n    \r\n    function func(address addr) public {\r\n      uint[] memory newArray = new uint[](3);\r\n      newArray[0] = 1;\r\n      newArray[1] = 2;\r\n      newArray[2] = 3;\r\n      \r\n      (bool success,) = addr.delegatecall(abi.encodeWithSignature(\"func(uint256[])\",newArray));\r\n      if(!success){\r\n          revert(\"boom\");\r\n      }\r\n    }\r\n}\r\n\r\n//only private or parents can call me\r\ncontract Accessors_8 {\r\n    function func() internal {\r\n\r\n    }\r\n}\r\n\r\n//only this contract can call me\r\ncontract Accessors_9 {\r\n    function func() private {\r\n\r\n    }\r\n}\r\n\r\ncontract Accessors_10 {\r\n    function func() public view {\r\n\r\n    }\r\n}\r\n\r\n\r\ncontract Accessors_11 {\r\n    function func() public pure {\r\n\r\n    }\r\n}",
  "sourcePath": "D:/code/Consensys/joeMS/SolidityGasSamples/contracts/Functions_And_Contract_Execution/Accessors.sol",
  "compiler": {
    "name": "solc",
    "version": "0.8.9+commit.e5eed63a.Emscripten.clang"
  },
  "schemaVersion": "3.3.4",
  "updatedAt": "2021-11-07T00:16:39.945Z",
  "devdoc": {
    "kind": "dev",
    "methods": {},
    "version": 1
  },
  "userdoc": {
    "kind": "user",
    "methods": {},
    "version": 1
  }
}