{
  "contractName": "Accessors_4",
  "abi": [
    {
      "inputs": [
        {
          "internalType": "uint256[]",
          "name": "",
          "type": "uint256[]"
        }
      ],
      "name": "func",
      "outputs": [],
      "stateMutability": "nonpayable",
      "type": "function"
    }
  ],
  "bytecode": "0x608060405234801561001057600080fd5b50610271806100206000396000f3fe608060405234801561001057600080fd5b506004361061002b5760003560e01c8063c780669214610030575b600080fd5b61004a600480360381019061004591906101f2565b61004c565b005b50565b6000604051905090565b600080fd5b600080fd5b600080fd5b6000601f19601f8301169050919050565b7f4e487b7100000000000000000000000000000000000000000000000000000000600052604160045260246000fd5b6100b182610068565b810181811067ffffffffffffffff821117156100d0576100cf610079565b5b80604052505050565b60006100e361004f565b90506100ef82826100a8565b919050565b600067ffffffffffffffff82111561010f5761010e610079565b5b602082029050602081019050919050565b600080fd5b6000819050919050565b61013881610125565b811461014357600080fd5b50565b6000813590506101558161012f565b92915050565b600061016e610169846100f4565b6100d9565b9050808382526020820190506020840283018581111561019157610190610120565b5b835b818110156101ba57806101a68882610146565b845260208401935050602081019050610193565b5050509392505050565b600082601f8301126101d9576101d8610063565b5b81356101e984826020860161015b565b91505092915050565b60006020828403121561020857610207610059565b5b600082013567ffffffffffffffff8111156102265761022561005e565b5b610232848285016101c4565b9150509291505056fea26469706673582212207a4d849d8fabae0607b442cd441e36c75a1af047b7f130839f8f53b12051761f64736f6c63430008090033",
  "immutableReferences": {},
  "source": "// SPDX-License-Identifier: MIT\r\npragma solidity 0.8.9;\r\n\r\n/*\r\na_1 - 76975   - 21186 \r\na_2 - 76975   - 21186\r\na_3 - 195493   ( call public 25344 ) (call public)\r\na_4 - 189271   \r\na_5 - 117763  \r\na_7 - 117763 \r\na_7 - 347056   - (4 exec 28591 ) (5 exec 27479 ) ( 6 exec 27479 )\r\na_8 - 67066  \r\na_9 - 67066 \r\na_10 76975 \r\na_11 76975 \r\n*/\r\n\r\n// uint8 storage and setter\r\ncontract Accessors_1 {\r\n    //anyone can call me\r\n    function func() public {\r\n\r\n    }\r\n}\r\n\r\n//only contracts can call me\r\ncontract Accessors_2 {\r\n    function func() external {\r\n\r\n    }\r\n}\r\n\r\n\r\n\r\ncontract Accessors_3 {\r\n    function func(address addr) public {\r\n       (bool success,) = addr.delegatecall(abi.encodeWithSignature(\"func()\"));\r\n    }\r\n}\r\n\r\ncontract Accessors_4 {\r\n    function func(uint256[] memory) public {\r\n      \r\n    }\r\n}\r\n\r\n// this shouldn't be possible? but remix allows it\r\ncontract Accessors_5 {\r\n    function func(uint256[] calldata arr) public {\r\n      \r\n    }\r\n}\r\n\r\ncontract Accessors_6 {\r\n    function func(uint256[] calldata arr) external {\r\n      \r\n    }\r\n}\r\n\r\ncontract Accessors_7 {\r\n    \r\n    function func(address addr) public {\r\n      uint[] memory newArray = new uint[](3);\r\n      newArray[0] = 1;\r\n      newArray[1] = 2;\r\n      newArray[2] = 3;\r\n      \r\n      (bool success,) = addr.delegatecall(abi.encodeWithSignature(\"func(uint256[])\",newArray));\r\n      if(!success){\r\n          revert(\"boom\");\r\n      }\r\n    }\r\n}\r\n\r\n//only private or parents can call me\r\ncontract Accessors_8 {\r\n    function func() internal {\r\n\r\n    }\r\n}\r\n\r\n//only this contract can call me\r\ncontract Accessors_9 {\r\n    function func() private {\r\n\r\n    }\r\n}\r\n\r\ncontract Accessors_10 {\r\n    function func() public view {\r\n\r\n    }\r\n}\r\n\r\n\r\ncontract Accessors_11 {\r\n    function func() public pure {\r\n\r\n    }\r\n}",
  "sourcePath": "D:/code/Consensys/joeMS/SolidityGasSamples/contracts/Functions_And_Contract_Execution/Accessors.sol",
  "compiler": {
    "name": "solc",
    "version": "0.8.9+commit.e5eed63a.Emscripten.clang"
  },
  "schemaVersion": "3.3.4",
  "updatedAt": "2021-11-07T00:16:39.957Z",
  "devdoc": {
    "kind": "dev",
    "methods": {},
    "version": 1
  },
  "userdoc": {
    "kind": "user",
    "methods": {},
    "version": 1
  }
}