{
  "contractName": "Accessors_7",
  "abi": [
    {
      "inputs": [
        {
          "internalType": "address",
          "name": "addr",
          "type": "address"
        }
      ],
      "name": "func",
      "outputs": [],
      "stateMutability": "nonpayable",
      "type": "function"
    }
  ],
  "bytecode": "0x608060405234801561001057600080fd5b50610559806100206000396000f3fe608060405234801561001057600080fd5b506004361061002b5760003560e01c8063b8550dc714610030575b600080fd5b61004a600480360381019061004591906102a0565b61004c565b005b6000600367ffffffffffffffff811115610069576100686102cd565b5b6040519080825280602002602001820160405280156100975781602001602082028036833780820191505090505b5090506001816000815181106100b0576100af6102fc565b5b6020026020010181815250506002816001815181106100d2576100d16102fc565b5b6020026020010181815250506003816002815181106100f4576100f36102fc565b5b60200260200101818152505060008273ffffffffffffffffffffffffffffffffffffffff168260405160240161012a91906103f3565b6040516020818303038152906040527fc7806692000000000000000000000000000000000000000000000000000000007bffffffffffffffffffffffffffffffffffffffffffffffffffffffff19166020820180517bffffffffffffffffffffffffffffffffffffffffffffffffffffffff83818316178352505050506040516101b4919061048f565b600060405180830381855af49150503d80600081146101ef576040519150601f19603f3d011682016040523d82523d6000602084013e6101f4565b606091505b5050905080610238576040517f08c379a000000000000000000000000000000000000000000000000000000000815260040161022f90610503565b60405180910390fd5b505050565b600080fd5b600073ffffffffffffffffffffffffffffffffffffffff82169050919050565b600061026d82610242565b9050919050565b61027d81610262565b811461028857600080fd5b50565b60008135905061029a81610274565b92915050565b6000602082840312156102b6576102b561023d565b5b60006102c48482850161028b565b91505092915050565b7f4e487b7100000000000000000000000000000000000000000000000000000000600052604160045260246000fd5b7f4e487b7100000000000000000000000000000000000000000000000000000000600052603260045260246000fd5b600081519050919050565b600082825260208201905092915050565b6000819050602082019050919050565b6000819050919050565b61036a81610357565b82525050565b600061037c8383610361565b60208301905092915050565b6000602082019050919050565b60006103a08261032b565b6103aa8185610336565b93506103b583610347565b8060005b838110156103e65781516103cd8882610370565b97506103d883610388565b9250506001810190506103b9565b5085935050505092915050565b6000602082019050818103600083015261040d8184610395565b905092915050565b600081519050919050565b600081905092915050565b60005b8381101561044957808201518184015260208101905061042e565b83811115610458576000848401525b50505050565b600061046982610415565b6104738185610420565b935061048381856020860161042b565b80840191505092915050565b600061049b828461045e565b915081905092915050565b600082825260208201905092915050565b7f626f6f6d00000000000000000000000000000000000000000000000000000000600082015250565b60006104ed6004836104a6565b91506104f8826104b7565b602082019050919050565b6000602082019050818103600083015261051c816104e0565b905091905056fea2646970667358221220c5b20949f106d65c84323dcb60d8e84a197190b040682b566cdd2e7aea0334db64736f6c63430008090033",
  "immutableReferences": {},
  "source": "// SPDX-License-Identifier: MIT\r\npragma solidity 0.8.9;\r\n\r\n/*\r\na_1 - 76975   - 21186 \r\na_2 - 76975   - 21186\r\na_3 - 195493   ( call public 25344 ) (call public)\r\na_4 - 189271   \r\na_5 - 117763  \r\na_7 - 117763 \r\na_7 - 347056   - (4 exec 28591 ) (5 exec 27479 ) ( 6 exec 27479 )\r\na_8 - 67066  \r\na_9 - 67066 \r\na_10 76975 \r\na_11 76975 \r\n*/\r\n\r\n// uint8 storage and setter\r\ncontract Accessors_1 {\r\n    //anyone can call me\r\n    function func() public {\r\n\r\n    }\r\n}\r\n\r\n//only contracts can call me\r\ncontract Accessors_2 {\r\n    function func() external {\r\n\r\n    }\r\n}\r\n\r\n\r\n\r\ncontract Accessors_3 {\r\n    function func(address addr) public {\r\n       (bool success,) = addr.delegatecall(abi.encodeWithSignature(\"func()\"));\r\n    }\r\n}\r\n\r\ncontract Accessors_4 {\r\n    function func(uint256[] memory) public {\r\n      \r\n    }\r\n}\r\n\r\n// this shouldn't be possible? but remix allows it\r\ncontract Accessors_5 {\r\n    function func(uint256[] calldata arr) public {\r\n      \r\n    }\r\n}\r\n\r\ncontract Accessors_6 {\r\n    function func(uint256[] calldata arr) external {\r\n      \r\n    }\r\n}\r\n\r\ncontract Accessors_7 {\r\n    \r\n    function func(address addr) public {\r\n      uint[] memory newArray = new uint[](3);\r\n      newArray[0] = 1;\r\n      newArray[1] = 2;\r\n      newArray[2] = 3;\r\n      \r\n      (bool success,) = addr.delegatecall(abi.encodeWithSignature(\"func(uint256[])\",newArray));\r\n      if(!success){\r\n          revert(\"boom\");\r\n      }\r\n    }\r\n}\r\n\r\n//only private or parents can call me\r\ncontract Accessors_8 {\r\n    function func() internal {\r\n\r\n    }\r\n}\r\n\r\n//only this contract can call me\r\ncontract Accessors_9 {\r\n    function func() private {\r\n\r\n    }\r\n}\r\n\r\ncontract Accessors_10 {\r\n    function func() public view {\r\n\r\n    }\r\n}\r\n\r\n\r\ncontract Accessors_11 {\r\n    function func() public pure {\r\n\r\n    }\r\n}",
  "sourcePath": "D:/code/Consensys/joeMS/SolidityGasSamples/contracts/Functions_And_Contract_Execution/Accessors.sol",
  "compiler": {
    "name": "solc",
    "version": "0.8.9+commit.e5eed63a.Emscripten.clang"
  },
  "schemaVersion": "3.3.4",
  "updatedAt": "2021-11-07T00:16:39.968Z",
  "devdoc": {
    "kind": "dev",
    "methods": {},
    "version": 1
  },
  "userdoc": {
    "kind": "user",
    "methods": {},
    "version": 1
  }
}