{
  "contractName": "Arr_Map_1",
  "abi": [
    {
      "inputs": [],
      "name": "addOwner",
      "outputs": [],
      "stateMutability": "nonpayable",
      "type": "function"
    },
    {
      "inputs": [],
      "name": "addOwner2",
      "outputs": [],
      "stateMutability": "nonpayable",
      "type": "function"
    }
  ],
  "bytecode": "0x608060405234801561001057600080fd5b506102ff806100206000396000f3fe608060405234801561001057600080fd5b50600436106100365760003560e01c80631ce26ecd1461003b578063cb87ef9214610045575b600080fd5b61004361004f565b005b61004d6100b4565b005b6000339080600181540180825580915050600190039060005260206000200160009091909190916101000a81548173ffffffffffffffffffffffffffffffffffffffff021916908373ffffffffffffffffffffffffffffffffffffffff160217905550565b600080600090505b600080549050811015610157573373ffffffffffffffffffffffffffffffffffffffff16600082815481106100f4576100f361019b565b5b9060005260206000200160009054906101000a900473ffffffffffffffffffffffffffffffffffffffff1673ffffffffffffffffffffffffffffffffffffffff1614156101445760019150610157565b808061014f90610203565b9150506100bc565b5080610198576040517f08c379a000000000000000000000000000000000000000000000000000000000815260040161018f906102a9565b60405180910390fd5b50565b7f4e487b7100000000000000000000000000000000000000000000000000000000600052603260045260246000fd5b7f4e487b7100000000000000000000000000000000000000000000000000000000600052601160045260246000fd5b6000819050919050565b600061020e826101f9565b91507fffffffffffffffffffffffffffffffffffffffffffffffffffffffffffffffff821415610241576102406101ca565b5b600182019050919050565b600082825260208201905092915050565b7f6e6f74206f776e65720000000000000000000000000000000000000000000000600082015250565b600061029360098361024c565b915061029e8261025d565b602082019050919050565b600060208201905081810360008301526102c281610286565b905091905056fea264697066735822122086b426781e32ba70fbf2d34c13aa49e9633ebfe28040c54994a41bc2f103298764736f6c63430008090033",
  "immutableReferences": {},
  "source": "// SPDX-License-Identifier: MIT\r\npragma solidity 0.8.9;\r\n\r\n/*\r\ni_1 - 217532 - 65564 - 25749\r\ni_2 - 179425 - 87820 - 23450\r\n*/\r\n\r\ncontract Arr_Map_1 {\r\n    \r\n     address[] owners;\r\n \r\n     function addOwner() public {\r\n        owners.push(msg.sender);\r\n     }\r\n\r\n     function addOwner2() isOwnerCheck public {\r\n\r\n     }\r\n\r\n     modifier isOwnerCheck(){\r\n         \r\n        bool isOwned;\r\n        for(uint256 a = 0;a<owners.length;a++){\r\n             if(owners[a] == msg.sender){\r\n                isOwned = true;\r\n                break;\r\n            }\r\n        }\r\n        require(isOwned,\"not owner\");\r\n         _; \r\n     }\r\n}\r\n\r\ncontract Arr_Map_2 {\r\n     mapping(address=>bool) isOwner;\r\n     \r\n     address[] owners;\r\n \r\n     function addOwner() public {\r\n        owners.push(msg.sender);\r\n        isOwner[msg.sender] = true;\r\n     }\r\n\r\n     function addOwner2() isOwnerCheck public {\r\n\r\n     }\r\n\r\n     modifier isOwnerCheck(){\r\n        require(isOwner[msg.sender],\"not owner\");\r\n         _; \r\n     }\r\n}\r\n",
  "sourcePath": "D:/code/Consensys/joeMS/SolidityGasSamples/contracts/Data_Types/ArraysAndMappings.sol",
  "compiler": {
    "name": "solc",
    "version": "0.8.9+commit.e5eed63a.Emscripten.clang"
  },
  "schemaVersion": "3.3.4",
  "updatedAt": "2021-11-07T00:16:39.688Z",
  "devdoc": {
    "kind": "dev",
    "methods": {},
    "version": 1
  },
  "userdoc": {
    "kind": "user",
    "methods": {},
    "version": 1
  }
}