{
  "contractName": "Arr_Map_2",
  "abi": [
    {
      "inputs": [],
      "name": "addOwner",
      "outputs": [],
      "stateMutability": "nonpayable",
      "type": "function"
    },
    {
      "inputs": [],
      "name": "addOwner2",
      "outputs": [],
      "stateMutability": "nonpayable",
      "type": "function"
    }
  ],
  "bytecode": "0x608060405234801561001057600080fd5b5061024b806100206000396000f3fe608060405234801561001057600080fd5b50600436106100365760003560e01c80631ce26ecd1461003b578063cb87ef9214610045575b600080fd5b61004361004f565b005b61004d61010b565b005b6001339080600181540180825580915050600190039060005260206000200160009091909190916101000a81548173ffffffffffffffffffffffffffffffffffffffff021916908373ffffffffffffffffffffffffffffffffffffffff16021790555060016000803373ffffffffffffffffffffffffffffffffffffffff1673ffffffffffffffffffffffffffffffffffffffff16815260200190815260200160002060006101000a81548160ff021916908315150217905550565b6000803373ffffffffffffffffffffffffffffffffffffffff1673ffffffffffffffffffffffffffffffffffffffff16815260200190815260200160002060009054906101000a900460ff16610196576040517f08c379a000000000000000000000000000000000000000000000000000000000815260040161018d906101f5565b60405180910390fd5b565b600082825260208201905092915050565b7f6e6f74206f776e65720000000000000000000000000000000000000000000000600082015250565b60006101df600983610198565b91506101ea826101a9565b602082019050919050565b6000602082019050818103600083015261020e816101d2565b905091905056fea2646970667358221220e9f4af59ce3a6d09f5bb15b0f618547040b6cbb3790a22d0d070a98b300ed9e764736f6c63430008090033",
  "immutableReferences": {},
  "source": "// SPDX-License-Identifier: MIT\r\npragma solidity 0.8.9;\r\n\r\n/*\r\ni_1 - 217532 - 65564 - 25749\r\ni_2 - 179425 - 87820 - 23450\r\n*/\r\n\r\ncontract Arr_Map_1 {\r\n    \r\n     address[] owners;\r\n \r\n     function addOwner() public {\r\n        owners.push(msg.sender);\r\n     }\r\n\r\n     function addOwner2() isOwnerCheck public {\r\n\r\n     }\r\n\r\n     modifier isOwnerCheck(){\r\n         \r\n        bool isOwned;\r\n        for(uint256 a = 0;a<owners.length;a++){\r\n             if(owners[a] == msg.sender){\r\n                isOwned = true;\r\n                break;\r\n            }\r\n        }\r\n        require(isOwned,\"not owner\");\r\n         _; \r\n     }\r\n}\r\n\r\ncontract Arr_Map_2 {\r\n     mapping(address=>bool) isOwner;\r\n     \r\n     address[] owners;\r\n \r\n     function addOwner() public {\r\n        owners.push(msg.sender);\r\n        isOwner[msg.sender] = true;\r\n     }\r\n\r\n     function addOwner2() isOwnerCheck public {\r\n\r\n     }\r\n\r\n     modifier isOwnerCheck(){\r\n        require(isOwner[msg.sender],\"not owner\");\r\n         _; \r\n     }\r\n}\r\n",
  "sourcePath": "D:/code/Consensys/joeMS/SolidityGasSamples/contracts/Data_Types/ArraysAndMappings.sol",
  "compiler": {
    "name": "solc",
    "version": "0.8.9+commit.e5eed63a.Emscripten.clang"
  },
  "schemaVersion": "3.3.4",
  "updatedAt": "2021-11-07T00:16:39.691Z",
  "devdoc": {
    "kind": "dev",
    "methods": {},
    "version": 1
  },
  "userdoc": {
    "kind": "user",
    "methods": {},
    "version": 1
  }
}