{
  "contractName": "DataTypes_string_2",
  "abi": [
    {
      "inputs": [],
      "name": "SetString",
      "outputs": [],
      "stateMutability": "nonpayable",
      "type": "function"
    },
    {
      "inputs": [],
      "name": "GetString",
      "outputs": [
        {
          "internalType": "bytes32",
          "name": "",
          "type": "bytes32"
        }
      ],
      "stateMutability": "view",
      "type": "function"
    }
  ],
  "bytecode": "0x608060405234801561001057600080fd5b5060f18061001f6000396000f3fe6080604052348015600f57600080fd5b506004361060325760003560e01c8063d4501f40146037578063d6181e8414603f575b600080fd5b603d6059565b005b60456082565b6040516050919060a2565b60405180910390f35b7f74686973697374686972747974776f6368617261637465727379657369746973600081905550565b60008054905090565b6000819050919050565b609c81608b565b82525050565b600060208201905060b560008301846095565b9291505056fea264697066735822122028eb89078aad081741f2ff9b6885bee8259ba00665e55bf789fcedf7a8a9860364736f6c63430008090033",
  "immutableReferences": {},
  "source": "// SPDX-License-Identifier: MIT\r\n/*\r\nstring_1 deploy 230840 // set 65976 // string expensive to deploy and use\r\nstring_2 deploy 105459 // set 43300 // bytes32 cheaper to use and deploy\r\n\r\nstring_3 deploy 148591 // set 43670 // packed 128s expensive to deploy\r\nstring_4 deploy 109801 // set 65414 // cheaper to deploy, more expensive to use\r\n*/\r\n\r\npragma solidity 0.8.9;\r\n\r\n// string getter and setter\r\ncontract DataTypes_string_1 {\r\n     string s;\r\n     \r\n     function SetString() public {\r\n      s = \"thisisthirtytwocharactersyesitis\";   \r\n     }\r\n\r\n     function  GetString() public view returns(string memory){\r\n         return s;\r\n     }\r\n}\r\n\r\ncontract DataTypes_string_2 {\r\n     bytes32 s; \r\n     \r\n     function SetString() public {\r\n      s = \"thisisthirtytwocharactersyesitis\";   \r\n     }\r\n\r\n     function  GetString() public view returns(bytes32){\r\n         return s;\r\n     }\r\n}\r\n\r\ncontract DataTypes_string_3 {\r\n     bytes16 s; \r\n     bytes16 t; \r\n     \r\n     function SetString() public {\r\n      s = \"sixteensixteen16\";  \r\n      t= \"sixteensixteen16\";\r\n     }\r\n\r\n     function  GetString() public view returns(bytes16, bytes16){\r\n         return (s,t);\r\n     }\r\n}\r\n\r\ncontract DataTypes_string_4 {\r\n     bytes32 s; \r\n     bytes32 t; \r\n     \r\n     function SetString() public {\r\n       s = \"sixteensixteen16\";\r\n       t = \"sixteensixteen16\";\r\n     }\r\n\r\n     function  GetString() public view returns(bytes32, bytes32){\r\n         return (s,t);\r\n     }\r\n}",
  "sourcePath": "D:/code/Consensys/joeMS/SolidityGasSamples/contracts/Data_Types/StringsVsBytes.sol",
  "compiler": {
    "name": "solc",
    "version": "0.8.9+commit.e5eed63a.Emscripten.clang"
  },
  "schemaVersion": "3.3.4",
  "updatedAt": "2021-11-07T00:16:39.823Z",
  "devdoc": {
    "kind": "dev",
    "methods": {},
    "version": 1
  },
  "userdoc": {
    "kind": "user",
    "methods": {},
    "version": 1
  }
}