{
  "contractName": "DataTypes_packed_5",
  "abi": [
    {
      "inputs": [],
      "name": "SetVals",
      "outputs": [],
      "stateMutability": "nonpayable",
      "type": "function"
    }
  ],
  "bytecode": "0x608060405234801561001057600080fd5b5061020e806100206000396000f3fe608060405234801561001057600080fd5b506004361061002b5760003560e01c8063239fdd2e14610030575b600080fd5b61003861003a565b005b60016000806101000a8154816fffffffffffffffffffffffffffffffff02191690836fffffffffffffffffffffffffffffffff16021790555060026001819055506003600060106101000a8154816fffffffffffffffffffffffffffffffff02191690836fffffffffffffffffffffffffffffffff1602179055506100bd61018e565b7f610000000000000000000000000000000000000000000000000000000000000081600001906fffffffffffffffffffffffffffffffff191690816fffffffffffffffffffffffffffffffff1916815250507f62000000000000000000000000000000000000000000000000000000000000008160400181815250507f630000000000000000000000000000000000000000000000000000000000000081602001906fffffffffffffffffffffffffffffffff191690816fffffffffffffffffffffffffffffffff19168152505050565b604051806060016040528060006fffffffffffffffffffffffffffffffff1916815260200160006fffffffffffffffffffffffffffffffff1916815260200160008019168152509056fea26469706673582212204e66441c93efbf33206cb7b2158cfe00ec3a6a29440003d53cfe27575cba7f6664736f6c63430008090033",
  "immutableReferences": {},
  "source": "// SPDX-License-Identifier: MIT\r\npragma solidity 0.8.9;\r\n\r\n/*\r\np_1 - 103523 - 87634 \r\np_2 - 103739  - 65784 \r\np_3 - 103523 - 65784\r\np_4 - 165865 - 66040 \r\np_5 - 165865 - 66040 \r\np_6 - 214436  - 44273  \r\np_7 - 214436  - 44273\r\np_8 - 214436  - 44273 \r\np_9 - 214436  - 44273\r\np_10 - 214436  - 44273 \r\np_11 - 221354 - 44273 \r\n*/\r\n\r\n// uint8 storage and setter\r\ncontract DataTypes_packed_1 {\r\n    \r\n     uint128 a;\r\n     uint256 b;\r\n     uint128 c;\r\n     \r\n     function SetInts() public {\r\n      a = 1;\r\n      b = 2;\r\n      c = 3;   \r\n     }\r\n}\r\n\r\ncontract DataTypes_packed_2 {\r\n    \r\n     uint256 a;\r\n     uint128 b;\r\n     uint128 c;\r\n    \r\n    function SetInts() public {\r\n      a = 1;\r\n      b = 2;\r\n      c = 3;   \r\n     }\r\n}\r\n\r\ncontract DataTypes_packed_3 {\r\n    \r\n     uint128 a;\r\n     uint128 b;\r\n     uint256 c;\r\n\r\n    function SetInts() public {\r\n      a = 1;\r\n      b = 2;\r\n      c = 3;   \r\n     }\r\n}\r\n\r\ncontract DataTypes_packed_4 {\r\n    \r\n     uint128 a;\r\n     uint128 c;\r\n     uint256 b;\r\n\r\n     struct PackIt{\r\n         bytes16 b1;\r\n         bytes32 b2;\r\n         bytes16 b3;\r\n     }\r\n\r\n    function SetVals() public {\r\n      a = 1;\r\n      b = 2;\r\n      c = 3; \r\n\r\n      PackIt memory pack;\r\n      pack.b1  = \"a\";\r\n      pack.b2 =  \"b\";\r\n      pack.b3 =  \"c\";\r\n     }\r\n}\r\n\r\ncontract DataTypes_packed_5 {\r\n    \r\n     uint128 a;\r\n     uint128 c;\r\n     uint256 b;\r\n\r\n     struct PackIt{\r\n         bytes16 b1;\r\n         bytes16 b3;\r\n         bytes32 b2;\r\n     }\r\n\r\n    function SetVals() public {\r\n      a = 1;\r\n      b = 2;\r\n      c = 3; \r\n\r\n      PackIt memory pack;\r\n      pack.b1  = \"a\";\r\n      pack.b2 =  \"b\";\r\n      pack.b3 =  \"c\";\r\n     }\r\n}\r\n\r\ncontract DataTypes_packed_6 {\r\n    \r\n     uint64 a;\r\n\r\n     struct PackItA{\r\n         bytes16 x;\r\n         uint64 i;\r\n     }\r\n\r\n     struct PackItB{\r\n        bytes16 x;\r\n        uint64 i;\r\n     }\r\n\r\n     struct PackItC{\r\n        bytes16 x;\r\n        uint64 i;\r\n        uint64 z;\r\n     }\r\n\r\n     uint64 b;\r\n\r\n    function SetVals() public {\r\n      a = 1;\r\n      b = 2; \r\n    \r\n     PackItA memory pack;\r\n      pack.x  = \"a\";\r\n      pack.i =  1;\r\n     \r\n\r\n     PackItB memory pack2;\r\n      pack.x  = \"a\";\r\n      pack.i =  1;\r\n     \r\n\r\n      PackItC memory pack3;\r\n      pack.x  = \"a\";\r\n      pack.i =  1;\r\n    }\r\n}\r\n\r\ncontract DataTypes_packed_7 {\r\n    \r\n     uint64 a;\r\n\r\n     struct PackItA{\r\n         bytes16 x;\r\n         uint64 i;\r\n     }\r\n\r\n     uint64 b;\r\n\r\n     struct PackItB{\r\n        bytes16 x;\r\n        uint64 i;\r\n     }\r\n\r\n     struct PackItC{\r\n        bytes16 x;\r\n        uint64 i;\r\n        uint64 z;\r\n     }\r\n\r\n   \r\n    function SetVals() public {\r\n      a = 1;\r\n      b = 2; \r\n\r\n     PackItA memory pack;\r\n      pack.x  = \"a\";\r\n      pack.i =  1;\r\n     \r\n\r\n      PackItB memory pack2;\r\n      pack.x  = \"a\";\r\n      pack.i =  1;\r\n     \r\n\r\n      PackItC memory pack3;\r\n      pack.x  = \"a\";\r\n      pack.i =  1;\r\n    }\r\n}\r\n\r\ncontract DataTypes_packed_8 {\r\n    \r\n     struct PackItA{\r\n         bytes16 x;\r\n         uint64 i;\r\n     }\r\n     \r\n     uint64 a;\r\n\r\n     struct PackItB{\r\n        bytes16 x;\r\n        uint64 i;\r\n     }\r\n     \r\n     uint64 b;\r\n\r\n     struct PackItC{\r\n        bytes16 x;\r\n        uint64 i;\r\n        uint64 z;\r\n     }\r\n\r\n   \r\n\r\n    function SetVals() public {\r\n      a = 1;\r\n      b = 2; \r\n\r\n     PackItA memory pack;\r\n      pack.x  = \"a\";\r\n      pack.i =  1;\r\n     \r\n\r\n      PackItB memory pack2;\r\n      pack.x  = \"a\";\r\n      pack.i =  1;\r\n     \r\n\r\n      PackItC memory pack3;\r\n      pack.x  = \"a\";\r\n      pack.i =  1;\r\n    }\r\n}\r\n\r\ncontract DataTypes_packed_9 {\r\n    \r\n    uint64 a;\r\n    \r\n     struct PackItA{\r\n         bytes16 x;\r\n         uint64 i;\r\n     }\r\n     \r\n     uint64 b;\r\n\r\n     struct PackItB{\r\n        bytes16 x;\r\n        uint64 i;\r\n     }\r\n     \r\n     struct PackItC{\r\n        bytes16 x;\r\n        uint64 i;\r\n        uint64 z;\r\n     }\r\n\r\n\r\n    function SetVals() public {\r\n      a = 1;\r\n      b = 2; \r\n\r\n     PackItA memory pack;\r\n      pack.x  = \"a\";\r\n      pack.i =  1;\r\n     \r\n\r\n      PackItB memory pack2;\r\n      pack.x  = \"a\";\r\n      pack.i =  1;\r\n     \r\n\r\n      PackItC memory pack3;\r\n      pack.x  = \"a\";\r\n      pack.i =  1;\r\n    }\r\n}\r\n\r\ncontract DataTypes_packed_10 {\r\n\r\n     struct PackItA{\r\n         bytes16 x;\r\n         uint64 i;\r\n     }\r\n     \r\n     struct PackItB{\r\n        bytes16 x;\r\n        uint64 i;\r\n     }\r\n     \r\n     uint64 b;\r\n     uint64 a;\r\n     \r\n     struct PackItC{\r\n        bytes16 x;\r\n        uint64 i;\r\n        uint64 z;\r\n     }\r\n\r\n\r\n    function SetVals() public {\r\n      a = 1;\r\n      b = 2; \r\n\r\n     PackItA memory pack;\r\n      pack.x  = \"a\";\r\n      pack.i =  1;\r\n     \r\n\r\n      PackItB memory pack2;\r\n      pack.x  = \"a\";\r\n      pack.i =  1;\r\n     \r\n\r\n      PackItC memory pack3;\r\n      pack.x  = \"a\";\r\n      pack.i =  1;\r\n    }\r\n}\r\n\r\ncontract DataTypes_packed_11 {\r\n\r\n     struct PackItA{\r\n         bytes16 x;\r\n         uint64 i;\r\n     }\r\n     \r\n     uint128 b;\r\n      \r\n     struct PackItB{\r\n        bytes16 x;\r\n        uint64 i;\r\n     }\r\n     \r\n    \r\n     uint128 a;\r\n     \r\n     struct PackItC{\r\n        bytes16 x;\r\n        uint64 i;\r\n        uint64 z;\r\n     }\r\n\r\n\r\n    function SetVals() public {\r\n      a = 1;\r\n      b = 2; \r\n\r\n     PackItA memory pack;\r\n      pack.x  = \"a\";\r\n      pack.i =  1;\r\n     \r\n\r\n      PackItB memory pack2;\r\n      pack.x  = \"a\";\r\n      pack.i =  1;\r\n     \r\n\r\n      PackItC memory pack3;\r\n      pack.x  = \"a\";\r\n      pack.i =  1;\r\n    }\r\n}",
  "sourcePath": "D:/code/Consensys/joeMS/SolidityGasSamples/contracts/Data_Types/Packing.sol",
  "compiler": {
    "name": "solc",
    "version": "0.8.9+commit.e5eed63a.Emscripten.clang"
  },
  "schemaVersion": "3.3.4",
  "updatedAt": "2021-11-07T00:16:39.773Z",
  "devdoc": {
    "kind": "dev",
    "methods": {},
    "version": 1
  },
  "userdoc": {
    "kind": "user",
    "methods": {},
    "version": 1
  }
}