{
  "contractName": "DataTypes_string_3",
  "abi": [
    {
      "inputs": [],
      "name": "SetString",
      "outputs": [],
      "stateMutability": "nonpayable",
      "type": "function"
    },
    {
      "inputs": [],
      "name": "GetString",
      "outputs": [
        {
          "internalType": "bytes16",
          "name": "",
          "type": "bytes16"
        },
        {
          "internalType": "bytes16",
          "name": "",
          "type": "bytes16"
        }
      ],
      "stateMutability": "view",
      "type": "function"
    }
  ],
  "bytecode": "0x608060405234801561001057600080fd5b506101bc806100206000396000f3fe608060405234801561001057600080fd5b50600436106100365760003560e01c8063d4501f401461003b578063d6181e8414610045575b600080fd5b610043610064565b005b61004d6100f9565b60405161005b92919061015d565b60405180910390f35b7f7369787465656e7369787465656e3136000000000000000000000000000000006000806101000a8154816fffffffffffffffffffffffffffffffff021916908360801c02179055507f7369787465656e7369787465656e313600000000000000000000000000000000600060106101000a8154816fffffffffffffffffffffffffffffffff021916908360801c0217905550565b60008060008054906101000a900460801b600060109054906101000a900460801b915091509091565b60007fffffffffffffffffffffffffffffffff0000000000000000000000000000000082169050919050565b61015781610122565b82525050565b6000604082019050610172600083018561014e565b61017f602083018461014e565b939250505056fea26469706673582212204f2a8016036a5ecb503c57a4d5553d3e27a57c425608c0653153bc175690f3db64736f6c63430008090033",
  "immutableReferences": {},
  "source": "// SPDX-License-Identifier: MIT\r\n/*\r\nstring_1 deploy 230840 // set 65976 // string expensive to deploy and use\r\nstring_2 deploy 105459 // set 43300 // bytes32 cheaper to use and deploy\r\n\r\nstring_3 deploy 148591 // set 43670 // packed 128s expensive to deploy\r\nstring_4 deploy 109801 // set 65414 // cheaper to deploy, more expensive to use\r\n*/\r\n\r\npragma solidity 0.8.9;\r\n\r\n// string getter and setter\r\ncontract DataTypes_string_1 {\r\n     string s;\r\n     \r\n     function SetString() public {\r\n      s = \"thisisthirtytwocharactersyesitis\";   \r\n     }\r\n\r\n     function  GetString() public view returns(string memory){\r\n         return s;\r\n     }\r\n}\r\n\r\ncontract DataTypes_string_2 {\r\n     bytes32 s; \r\n     \r\n     function SetString() public {\r\n      s = \"thisisthirtytwocharactersyesitis\";   \r\n     }\r\n\r\n     function  GetString() public view returns(bytes32){\r\n         return s;\r\n     }\r\n}\r\n\r\ncontract DataTypes_string_3 {\r\n     bytes16 s; \r\n     bytes16 t; \r\n     \r\n     function SetString() public {\r\n      s = \"sixteensixteen16\";  \r\n      t= \"sixteensixteen16\";\r\n     }\r\n\r\n     function  GetString() public view returns(bytes16, bytes16){\r\n         return (s,t);\r\n     }\r\n}\r\n\r\ncontract DataTypes_string_4 {\r\n     bytes32 s; \r\n     bytes32 t; \r\n     \r\n     function SetString() public {\r\n       s = \"sixteensixteen16\";\r\n       t = \"sixteensixteen16\";\r\n     }\r\n\r\n     function  GetString() public view returns(bytes32, bytes32){\r\n         return (s,t);\r\n     }\r\n}",
  "sourcePath": "D:/code/Consensys/joeMS/SolidityGasSamples/contracts/Data_Types/StringsVsBytes.sol",
  "compiler": {
    "name": "solc",
    "version": "0.8.9+commit.e5eed63a.Emscripten.clang"
  },
  "schemaVersion": "3.3.4",
  "updatedAt": "2021-11-07T00:16:39.826Z",
  "devdoc": {
    "kind": "dev",
    "methods": {},
    "version": 1
  },
  "userdoc": {
    "kind": "user",
    "methods": {},
    "version": 1
  }
}