{
  "contractName": "DataTypes_uint_6",
  "abi": [
    {
      "inputs": [],
      "name": "SetInt",
      "outputs": [],
      "stateMutability": "nonpayable",
      "type": "function"
    }
  ],
  "bytecode": "0x6080604052348015600f57600080fd5b5060e08061001e6000396000f3fe6080604052348015600f57600080fd5b506004361060285760003560e01c80639929782314602d575b600080fd5b60336035565b005b60016000806101000a8154816fffffffffffffffffffffffffffffffff02191690836fffffffffffffffffffffffffffffffff1602179055506001600060106101000a8154816fffffffffffffffffffffffffffffffff02191690836fffffffffffffffffffffffffffffffff16021790555056fea26469706673582212207254e95b493592c9ff0e3c0cd415c8a30c632e3f38ca6302164bd0f34bfdbeaf64736f6c63430008090033",
  "immutableReferences": {},
  "source": "// SPDX-License-Identifier: MIT\r\npragma solidity 0.8.9;\r\n\r\n/*\r\n2 types of gas costs - deploy and execute\r\n\r\nuint_1 = deploy 82793  // execute 43353 \r\nuint_2 = deploy 78691  // execute 43300 \r\nuint_3 = deploy 81941  // execute 87528 \r\nuint_4 = deploy 81941  // execute 87528\r\n// uint256 * 2 vs. uint128 * 2\r\nuint_5 = deploy 80207  // execute 65414   \r\nuint_6 = deploy 101789  // execute  43670 \r\n*/\r\n\r\n// uint8 storage and setter\r\ncontract DataTypes_uint_1 {\r\n    \r\n     uint8 i;\r\n     \r\n     function SetInt8() public {\r\n      i = 1;   \r\n     }\r\n}\r\n\r\n// uint256 explicit declare \r\ncontract DataTypes_uint_2 {\r\n    \r\n     uint256 i;\r\n     \r\n     function SetInt() public {\r\n       i = 1;   \r\n     }\r\n}\r\n\r\ncontract DataTypes_uint_3 {\r\n    \r\n     uint256 i;\r\n     uint256 y;\r\n     uint256 z; \r\n     \r\n     function SetInt() public {\r\n       i = 1;   \r\n       y = 1;\r\n       z = 1;\r\n     }\r\n}\r\n\r\n// uint default value\r\ncontract DataTypes_uint_4 {\r\n    \r\n     uint i;\r\n     uint y;\r\n     uint z;\r\n     \r\n     function SetInt() public {\r\n       i = 1;   \r\n       y = 1;\r\n       z = 1;\r\n     }\r\n}\r\n\r\n\r\n// uint256 explicit declare \r\ncontract DataTypes_uint_5 {\r\n    \r\n     uint256 i;\r\n     uint256 y;\r\n     \r\n     function SetInt() public {\r\n       i = 1;   \r\n       y = 1;\r\n     }\r\n}\r\n\r\n\r\n// uint256 with 2 instances \r\ncontract DataTypes_uint_6 {\r\n    \r\n     uint128 i;\r\n     uint128 y;\r\n     \r\n     function SetInt() public {\r\n       i = 1;   \r\n       y = 1;\r\n     }\r\n}\r\n",
  "sourcePath": "D:/code/Consensys/joeMS/SolidityGasSamples/contracts/Data_Types/Uint.sol",
  "compiler": {
    "name": "solc",
    "version": "0.8.9+commit.e5eed63a.Emscripten.clang"
  },
  "schemaVersion": "3.3.4",
  "updatedAt": "2021-11-07T00:16:39.851Z",
  "devdoc": {
    "kind": "dev",
    "methods": {},
    "version": 1
  },
  "userdoc": {
    "kind": "user",
    "methods": {},
    "version": 1
  }
}