{
  "contractName": "Errors_5",
  "abi": [
    {
      "inputs": [],
      "stateMutability": "nonpayable",
      "type": "constructor"
    },
    {
      "inputs": [],
      "name": "testing",
      "outputs": [],
      "stateMutability": "nonpayable",
      "type": "function"
    }
  ],
  "bytecode": "0x608060405234801561001057600080fd5b50600180600181540180825580915050600190039060005260206000200160007f776f770000000000000000000000000000000000000000000000000000000000909190915055600180600181540180825580915050600190039060005260206000200160007f7468697300000000000000000000000000000000000000000000000000000000909190915055600180600181540180825580915050600190039060005260206000200160007f6973000000000000000000000000000000000000000000000000000000000000909190915055600180600181540180825580915050600190039060005260206000200160007f657870656e736976650000000000000000000000000000000000000000000000909190915055610283806101386000396000f3fe608060405234801561001057600080fd5b506004361061002b5760003560e01c80638d03b10214610030575b600080fd5b61003861003a565b005b6100637f657870656e7369766500000000000000000000000000000000000000000000006100bc565b158061007a575060008054906101000a900460ff16155b156100ba576040517f08c379a00000000000000000000000000000000000000000000000000000000081526004016100b19061017c565b60405180910390fd5b565b600080600090505b60018054905081101561011457600181815481106100e5576100e461019c565b5b906000526020600020015483141561010157600191505061011a565b808061010c90610204565b9150506100c4565b50600090505b919050565b600082825260208201905092915050565b7f6661696c65640000000000000000000000000000000000000000000000000000600082015250565b600061016660068361011f565b915061017182610130565b602082019050919050565b6000602082019050818103600083015261019581610159565b9050919050565b7f4e487b7100000000000000000000000000000000000000000000000000000000600052603260045260246000fd5b7f4e487b7100000000000000000000000000000000000000000000000000000000600052601160045260246000fd5b6000819050919050565b600061020f826101fa565b91507fffffffffffffffffffffffffffffffffffffffffffffffffffffffffffffffff821415610242576102416101cb565b5b60018201905091905056fea2646970667358221220bd71a54d3d82b3c9527d13d936eb9692c88f470ceb7a0553e378218f1e26f2b664736f6c63430008090033",
  "immutableReferences": {},
  "source": "// SPDX-License-Identifier: MIT\r\npragma solidity 0.8.9;\r\n\r\n/*\r\ne_1 - 145255 - 21886\r\ne_2 - 144991 - 21886\r\ne_3 - 113533 - 21626 \r\ne_4 - 144979 - 21886\r\ne_5 - 305061 - 35942\r\ne_6 - 305061 - 23648\r\n*/\r\n\r\n// uint8 storage and setter\r\ncontract Errors_1 {\r\n    //anyone can call me\r\n    function func_1(bool testBool) public {\r\n        require(testBool,\"This value you passed is false\");\r\n    }\r\n\r\n}\r\n\r\ncontract Errors_2 {\r\n    //anyone can call me\r\n     function func_1(bool testBool) public {\r\n        require(testBool,\"Bad bool\");\r\n    }\r\n}\r\n\r\n// don't get too excited about this as a saving though, it really should only be used to check invarients and state\r\ncontract Errors_3 {\r\n    //anyone can call me\r\n     function func_1(bool testBool) public {\r\n        assert(testBool);\r\n    }\r\n}\r\n\r\ncontract Errors_4 {\r\n    //anyone can call me\r\n     function func_1(bool testBool) public {\r\n        if(!testBool){\r\n            revert(\"Bad bool\");\r\n        }\r\n    }\r\n}\r\n\r\ncontract Errors_5 {\r\n    \r\n    bool testCondition;\r\n    \r\n    bytes32[] strings;\r\n    \r\n    constructor(){\r\n        strings.push(\"wow\");\r\n        strings.push(\"this\");\r\n        strings.push(\"is\");\r\n        strings.push(\"expensive\");\r\n    }\r\n    \r\n    function testing() public{\r\n        if(!contains(\"expensive\") || !testCondition){\r\n            revert(\"failed\");\r\n        }\r\n    }\r\n    \r\n    function contains(bytes32 stringToCheck) private returns(bool){\r\n        for(uint256 i=0;i<strings.length;i++){\r\n            if(stringToCheck == strings[i]){\r\n                return true;\r\n            }\r\n        }\r\n        \r\n        return false;\r\n    }\r\n}\r\n\r\ncontract Errors_6 {\r\n    \r\n    bool testCondition;\r\n    \r\n    bytes32[] strings;\r\n    \r\n    constructor(){\r\n        strings.push(\"wow\");\r\n        strings.push(\"this\");\r\n        strings.push(\"is\");\r\n        strings.push(\"expensive\");\r\n    }\r\n    \r\n    function testing() public{\r\n        if(!testCondition || !contains(\"expensive\")){\r\n            revert(\"failed\");\r\n        }\r\n    }\r\n    \r\n    function contains(bytes32 stringToCheck) private returns(bool){\r\n        for(uint256 i=0;i<strings.length;i++){\r\n            if(stringToCheck == strings[i]){\r\n                return true;\r\n            }\r\n        }\r\n        \r\n        return false;\r\n    }\r\n}",
  "sourcePath": "D:/code/Consensys/joeMS/SolidityGasSamples/contracts/Functions_And_Contract_Execution/ErrorStrings.sol",
  "compiler": {
    "name": "solc",
    "version": "0.8.9+commit.e5eed63a.Emscripten.clang"
  },
  "schemaVersion": "3.3.4",
  "updatedAt": "2021-11-07T00:16:40.005Z",
  "devdoc": {
    "kind": "dev",
    "methods": {},
    "version": 1
  },
  "userdoc": {
    "kind": "user",
    "methods": {},
    "version": 1
  }
}