{
  "contractName": "Errors_2",
  "abi": [
    {
      "inputs": [
        {
          "internalType": "bool",
          "name": "testBool",
          "type": "bool"
        }
      ],
      "name": "func_1",
      "outputs": [],
      "stateMutability": "nonpayable",
      "type": "function"
    }
  ],
  "bytecode": "0x608060405234801561001057600080fd5b506101ac806100206000396000f3fe608060405234801561001057600080fd5b506004361061002b5760003560e01c806397e9751e14610030575b600080fd5b61004a600480360381019061004591906100cc565b61004c565b005b8061008c576040517f08c379a000000000000000000000000000000000000000000000000000000000815260040161008390610156565b60405180910390fd5b50565b600080fd5b60008115159050919050565b6100a981610094565b81146100b457600080fd5b50565b6000813590506100c6816100a0565b92915050565b6000602082840312156100e2576100e161008f565b5b60006100f0848285016100b7565b91505092915050565b600082825260208201905092915050565b7f42616420626f6f6c000000000000000000000000000000000000000000000000600082015250565b60006101406008836100f9565b915061014b8261010a565b602082019050919050565b6000602082019050818103600083015261016f81610133565b905091905056fea2646970667358221220e0116c36bd6fe5be8909727beb63aeda8e6b3d35f2c6f8165dc7f0f1f4f9df1464736f6c63430008090033",
  "immutableReferences": {},
  "source": "// SPDX-License-Identifier: MIT\r\npragma solidity 0.8.9;\r\n\r\n/*\r\ne_1 - 145255 - 21886\r\ne_2 - 144991 - 21886\r\ne_3 - 113533 - 21626 \r\ne_4 - 144979 - 21886\r\ne_5 - 305061 - 35942\r\ne_6 - 305061 - 23648\r\n*/\r\n\r\n// uint8 storage and setter\r\ncontract Errors_1 {\r\n    //anyone can call me\r\n    function func_1(bool testBool) public {\r\n        require(testBool,\"This value you passed is false\");\r\n    }\r\n\r\n}\r\n\r\ncontract Errors_2 {\r\n    //anyone can call me\r\n     function func_1(bool testBool) public {\r\n        require(testBool,\"Bad bool\");\r\n    }\r\n}\r\n\r\n// don't get too excited about this as a saving though, it really should only be used to check invarients and state\r\ncontract Errors_3 {\r\n    //anyone can call me\r\n     function func_1(bool testBool) public {\r\n        assert(testBool);\r\n    }\r\n}\r\n\r\ncontract Errors_4 {\r\n    //anyone can call me\r\n     function func_1(bool testBool) public {\r\n        if(!testBool){\r\n            revert(\"Bad bool\");\r\n        }\r\n    }\r\n}\r\n\r\ncontract Errors_5 {\r\n    \r\n    bool testCondition;\r\n    \r\n    bytes32[] strings;\r\n    \r\n    constructor(){\r\n        strings.push(\"wow\");\r\n        strings.push(\"this\");\r\n        strings.push(\"is\");\r\n        strings.push(\"expensive\");\r\n    }\r\n    \r\n    function testing() public{\r\n        if(!contains(\"expensive\") || !testCondition){\r\n            revert(\"failed\");\r\n        }\r\n    }\r\n    \r\n    function contains(bytes32 stringToCheck) private returns(bool){\r\n        for(uint256 i=0;i<strings.length;i++){\r\n            if(stringToCheck == strings[i]){\r\n                return true;\r\n            }\r\n        }\r\n        \r\n        return false;\r\n    }\r\n}\r\n\r\ncontract Errors_6 {\r\n    \r\n    bool testCondition;\r\n    \r\n    bytes32[] strings;\r\n    \r\n    constructor(){\r\n        strings.push(\"wow\");\r\n        strings.push(\"this\");\r\n        strings.push(\"is\");\r\n        strings.push(\"expensive\");\r\n    }\r\n    \r\n    function testing() public{\r\n        if(!testCondition || !contains(\"expensive\")){\r\n            revert(\"failed\");\r\n        }\r\n    }\r\n    \r\n    function contains(bytes32 stringToCheck) private returns(bool){\r\n        for(uint256 i=0;i<strings.length;i++){\r\n            if(stringToCheck == strings[i]){\r\n                return true;\r\n            }\r\n        }\r\n        \r\n        return false;\r\n    }\r\n}",
  "sourcePath": "D:/code/Consensys/joeMS/SolidityGasSamples/contracts/Functions_And_Contract_Execution/ErrorStrings.sol",
  "compiler": {
    "name": "solc",
    "version": "0.8.9+commit.e5eed63a.Emscripten.clang"
  },
  "schemaVersion": "3.3.4",
  "updatedAt": "2021-11-07T00:16:39.986Z",
  "devdoc": {
    "kind": "dev",
    "methods": {},
    "version": 1
  },
  "userdoc": {
    "kind": "user",
    "methods": {},
    "version": 1
  }
}