{
  "contractName": "FunctionNames_1",
  "abi": [
    {
      "inputs": [],
      "name": "ThisIsMyReallyReallyLongFunctionName",
      "outputs": [],
      "stateMutability": "nonpayable",
      "type": "function"
    }
  ],
  "bytecode": "0x6080604052348015600f57600080fd5b50606d80601d6000396000f3fe6080604052348015600f57600080fd5b506004361060285760003560e01c80632b3cd89314602d575b600080fd5b60336035565b005b56fea2646970667358221220c320781a4c999bd611fe509b797c666db9c38ba55b1aa2a715793c65bb591f3d64736f6c63430008090033",
  "immutableReferences": {},
  "source": "// SPDX-License-Identifier: MIT\r\npragma solidity 0.8.9;\r\n\r\n/*\r\nf_1 - 76975 - 21186\r\nf_2 - 76975 - 21186\r\n*/\r\n\r\n// uint8 storage and setter\r\ncontract FunctionNames_1 {\r\n     \r\n     function ThisIsMyReallyReallyLongFunctionName() public {\r\n    \r\n     }\r\n}\r\n\r\n\r\ncontract FunctionNames_2 {\r\n     \r\n     function x() public {\r\n    \r\n     }\r\n}\r\n",
  "sourcePath": "D:/code/Consensys/joeMS/SolidityGasSamples/contracts/Contract_Design/FunctionNames.sol",
  "compiler": {
    "name": "solc",
    "version": "0.8.9+commit.e5eed63a.Emscripten.clang"
  },
  "schemaVersion": "3.3.4",
  "updatedAt": "2021-11-07T00:16:39.616Z",
  "devdoc": {
    "kind": "dev",
    "methods": {},
    "version": 1
  },
  "userdoc": {
    "kind": "user",
    "methods": {},
    "version": 1
  }
}