{
  "contractName": "Inherit_3",
  "abi": [
    {
      "inputs": [
        {
          "internalType": "uint256",
          "name": "i",
          "type": "uint256"
        }
      ],
      "name": "Work",
      "outputs": [],
      "stateMutability": "nonpayable",
      "type": "function"
    }
  ],
  "bytecode": "0x608060405234801561001057600080fd5b506101af806100206000396000f3fe608060405234801561001057600080fd5b506004361061002b5760003560e01c8063cc48e7d514610030575b600080fd5b61004a600480360381019061004591906100d4565b61004c565b005b6100558161005e565b60008190555050565b600080600190505b606481101561009057828061007a90610130565b935050808061008890610130565b915050610066565b50819050919050565b600080fd5b6000819050919050565b6100b18161009e565b81146100bc57600080fd5b50565b6000813590506100ce816100a8565b92915050565b6000602082840312156100ea576100e9610099565b5b60006100f8848285016100bf565b91505092915050565b7f4e487b7100000000000000000000000000000000000000000000000000000000600052601160045260246000fd5b600061013b8261009e565b91507fffffffffffffffffffffffffffffffffffffffffffffffffffffffffffffffff82141561016e5761016d610101565b5b60018201905091905056fea2646970667358221220699e7c3e386c043a4d870679e916dcc6b5186a2371f26f5148e4c6e3b402a95e64736f6c63430008090033",
  "immutableReferences": {},
  "source": "// SPDX-License-Identifier: MIT\r\npragma solidity 0.8.9;\r\n\r\n/*\r\ni_1 - 149737 - 75607\r\ni_2 - 145867 - 75564\r\n*/\r\n\r\n// uint8 storage and setter\r\ncontract Inherit_1 {    \r\n     function DoWork(uint256 start) internal virtual pure returns (uint256) {\r\n         for(uint256 i = 1; i<100;i++){\r\n             start++;\r\n         }\r\n\r\n         return start;\r\n     }\r\n}\r\n\r\ncontract Inherit_2 is Inherit_1{\r\n\r\n    uint256 val;\r\n\r\n    function  Work(uint256 i) public {\r\n        val = DoWork(i);\r\n    }\r\n\r\n    function  DoWork(uint256 start) internal  override pure returns(uint256) {\r\n        return super.DoWork(start);\r\n    }\r\n}\r\n\r\ncontract Inherit_3{\r\n\r\n    uint256 val;\r\n\r\n    function  Work(uint256 i) public {\r\n        val = DoWork(i);\r\n    }\r\n\r\n    function DoWork(uint256 start) private pure returns (uint256) {\r\n         for(uint256 i = 1; i<100;i++){\r\n             start++;\r\n         }\r\n\r\n         return start;\r\n    }\r\n}",
  "sourcePath": "D:/code/Consensys/joeMS/SolidityGasSamples/contracts/Contract_Design/Inheritance.sol",
  "compiler": {
    "name": "solc",
    "version": "0.8.9+commit.e5eed63a.Emscripten.clang"
  },
  "schemaVersion": "3.3.4",
  "updatedAt": "2021-11-07T00:16:39.627Z",
  "devdoc": {
    "kind": "dev",
    "methods": {},
    "version": 1
  },
  "userdoc": {
    "kind": "user",
    "methods": {},
    "version": 1
  }
}