{
  "contractName": "Library_1",
  "abi": [
    {
      "inputs": [],
      "name": "SplitFunds",
      "outputs": [],
      "stateMutability": "payable",
      "type": "function"
    },
    {
      "inputs": [],
      "name": "addOwner",
      "outputs": [],
      "stateMutability": "nonpayable",
      "type": "function"
    }
  ],
  "bytecode": "0x608060405234801561001057600080fd5b50610405806100206000396000f3fe6080604052600436106100295760003560e01c80631ce26ecd1461002e57806329a3bcbf14610045575b600080fd5b34801561003a57600080fd5b5061004361004f565b005b61004d6100b4565b005b6000339080600181540180825580915050600190039060005260206000200160009091909190916101000a81548173ffffffffffffffffffffffffffffffffffffffff021916908373ffffffffffffffffffffffffffffffffffffffff160217905550565b6100bd346100bf565b565b60008080549050826100d1919061029f565b905060008080549050836100e591906102d0565b9050806001600080600081548110610100576100ff610301565b5b9060005260206000200160009054906101000a900473ffffffffffffffffffffffffffffffffffffffff1673ffffffffffffffffffffffffffffffffffffffff1673ffffffffffffffffffffffffffffffffffffffff16815260200190815260200160002060008282546101749190610330565b9250508190555060005b6000805490508110156102315782600160008084815481106101a3576101a2610301565b5b9060005260206000200160009054906101000a900473ffffffffffffffffffffffffffffffffffffffff1673ffffffffffffffffffffffffffffffffffffffff1673ffffffffffffffffffffffffffffffffffffffff16815260200190815260200160002060008282546102179190610330565b92505081905550808061022990610386565b91505061017e565b50505050565b6000819050919050565b7f4e487b7100000000000000000000000000000000000000000000000000000000600052601260045260246000fd5b7f4e487b7100000000000000000000000000000000000000000000000000000000600052601160045260246000fd5b60006102aa82610237565b91506102b583610237565b9250826102c5576102c4610241565b5b828204905092915050565b60006102db82610237565b91506102e683610237565b9250826102f6576102f5610241565b5b828206905092915050565b7f4e487b7100000000000000000000000000000000000000000000000000000000600052603260045260246000fd5b600061033b82610237565b915061034683610237565b9250827fffffffffffffffffffffffffffffffffffffffffffffffffffffffffffffffff0382111561037b5761037a610270565b5b828201905092915050565b600061039182610237565b91507fffffffffffffffffffffffffffffffffffffffffffffffffffffffffffffffff8214156103c4576103c3610270565b5b60018201905091905056fea26469706673582212208969727e18b96396849935f06ea60495428c13407d01d6cdfe038d6ec929362064736f6c63430008090033",
  "immutableReferences": {},
  "source": "// SPDX-License-Identifier: MIT\r\npragma solidity 0.8.9;\r\n\r\n/*\r\nf_1 - 274287 - 99825 - 48525\r\nf_2 - 148063 - 103637 - 52337\r\nf_3 - 274959 - 99835 - 48535\r\n*/\r\n\r\n// uint8 storage and setter\r\ncontract Library_1 {\r\n     \r\n     address[] owners;\r\n     mapping(address=>uint256) ownerBalances;\r\n\r\n     function SplitFunds() public payable {\r\n         distributeFunds(msg.value);\r\n     }\r\n\r\n     function addOwner() public {\r\n         // this should have checks, using this to just illustrate a point\r\n         owners.push(msg.sender);\r\n     }\r\n\r\n     function distributeFunds(uint256 amount) private {     \r\n        uint256 split = amount / owners.length;\r\n        uint256 remainder = amount % owners.length;\r\n        ownerBalances[owners[0]] += remainder;\r\n        \r\n        for(uint i=0; i < owners.length;i++) {\r\n            ownerBalances[owners[i]] += split;\r\n        }\r\n     }\r\n}\r\n\r\n\r\ncontract Library_2 {\r\n     \r\n     address[] owners;\r\n     mapping(address=>uint256) ownerBalances;\r\n\r\n     function SplitFunds() public payable {\r\n         FeeSplitter.distributeFunds(msg.value, owners, ownerBalances);\r\n     }\r\n\r\n     function addOwner() public {\r\n         // this should have checks, using this to just illustrate a point\r\n         owners.push(msg.sender);\r\n     }\r\n}\r\n\r\n\r\ncontract Library_3 {\r\n     \r\n     address[] owners;\r\n     mapping(address=>uint256) ownerBalances;\r\n\r\n     function SplitFunds() public payable {\r\n         distributeFunds(msg.value, owners, ownerBalances);\r\n     }\r\n\r\n     function addOwner() public {\r\n         // this should have checks, using this to just illustrate a point\r\n         owners.push(msg.sender);\r\n     }\r\n     \r\n     function distributeFunds(uint256 amount, address[] storage owners, mapping(address => uint256) storage ownerBalances) private {     \r\n        uint256 split = amount / owners.length;\r\n        uint256 remainder = amount % owners.length;\r\n        ownerBalances[owners[0]] += remainder;\r\n        \r\n        for(uint i=0; i < owners.length;i++) {\r\n            ownerBalances[owners[i]] += split;\r\n        }\r\n     }\r\n}\r\n\r\nlibrary FeeSplitter{\r\n    \r\n    function distributeFunds(uint256 amount, address[] storage owners, mapping(address => uint256) storage ownerBalances) public {     \r\n        uint256 split = amount / owners.length;\r\n        uint256 remainder = amount % owners.length;\r\n        ownerBalances[owners[0]] += remainder;\r\n        \r\n        for(uint i=0; i < owners.length;i++) {\r\n            ownerBalances[owners[i]] += split;\r\n        }\r\n     }\r\n}",
  "sourcePath": "D:/code/Consensys/joeMS/SolidityGasSamples/contracts/Contract_Design/Library.sol",
  "compiler": {
    "name": "solc",
    "version": "0.8.9+commit.e5eed63a.Emscripten.clang"
  },
  "schemaVersion": "3.3.4",
  "updatedAt": "2021-11-07T00:16:39.651Z",
  "devdoc": {
    "kind": "dev",
    "methods": {},
    "version": 1
  },
  "userdoc": {
    "kind": "user",
    "methods": {},
    "version": 1
  }
}