{
  "contractName": "MathOperators_1",
  "abi": [
    {
      "inputs": [],
      "name": "Operator_1",
      "outputs": [],
      "stateMutability": "nonpayable",
      "type": "function"
    }
  ],
  "bytecode": "0x608060405234801561001057600080fd5b50610109806100206000396000f3fe6080604052348015600f57600080fd5b506004361060285760003560e01c8063f071fb9114602d575b600080fd5b60336035565b005b600060019050600181604691906084565b905050565b6000819050919050565b7f4e487b7100000000000000000000000000000000000000000000000000000000600052601160045260246000fd5b6000608d82604b565b9150609683604b565b9250827fffffffffffffffffffffffffffffffffffffffffffffffffffffffffffffffff0382111560c85760c76055565b5b82820190509291505056fea2646970667358221220480b89b3d2f7244f4964c4096daae19124e5c40ffc3c5adaa42f53b53b6b5d6464736f6c63430008090033",
  "immutableReferences": {},
  "source": "// SPDX-License-Identifier: MIT\r\npragma solidity 0.8.9;\r\n\r\n/*\r\nm_1 - 21401  \r\nm_2 - 21401 \r\nm_3 - 21341 \r\nm_4 - 26231 \r\nm_5 - 26244  \r\nm_6 - 26445\r\nm_7 - 26231\r\nm_8 - 26244 \r\nm_9 - 26416 \r\n*/\r\n\r\n// uint8 storage and setter\r\ncontract MathOperators_1 {\r\n     \r\n     function Operator_1() public {\r\n       uint256 a = 1;\r\n       a = a + 1;\r\n     }\r\n}\r\n\r\ncontract MathOperators_2 {\r\n     \r\n     function Operator_1() public {\r\n       uint256 a = 1;\r\n       a += 1;\r\n     }\r\n}\r\n\r\ncontract MathOperators_3 {\r\n     \r\n     function Operator_1() public {\r\n       uint256 a = 1;\r\n       a ++;\r\n     }\r\n}\r\n\r\ncontract MathOperators_4 {\r\n     uint256 public a = 5;\r\n     function Operator_1() public {\r\n       a = a<<2;\r\n     }\r\n}\r\n\r\ncontract MathOperators_5 {\r\n     uint256 public a = 5;\r\n     function Operator_1() public {\r\n       a <<=2;\r\n     }\r\n}\r\n\r\ncontract MathOperators_6 {\r\n     uint256 public a = 5;\r\n     function Operator_1() public {\r\n       a *= 2**2;\r\n     }\r\n}\r\n\r\ncontract MathOperators_7 {\r\n     uint256 public a = 21000000;\r\n     function Operator_1() public {\r\n       a = a>>10;\r\n     }\r\n}\r\n\r\ncontract MathOperators_8 {\r\n     uint256 public a = 21000000;\r\n     function Operator_1() public {\r\n       a >>=10;\r\n     }\r\n}\r\n\r\ncontract MathOperators_9 {\r\n     uint256 public a = 21000000;\r\n     function Operator_1() public {\r\n       a /= 2**10;\r\n     }\r\n}",
  "sourcePath": "D:/code/Consensys/joeMS/SolidityGasSamples/contracts/Functions_And_Contract_Execution/Math.sol",
  "compiler": {
    "name": "solc",
    "version": "0.8.9+commit.e5eed63a.Emscripten.clang"
  },
  "schemaVersion": "3.3.4",
  "updatedAt": "2021-11-07T00:16:40.015Z",
  "devdoc": {
    "kind": "dev",
    "methods": {},
    "version": 1
  },
  "userdoc": {
    "kind": "user",
    "methods": {},
    "version": 1
  }
}