{
  "contractName": "MathOperators_4",
  "abi": [
    {
      "inputs": [],
      "name": "a",
      "outputs": [
        {
          "internalType": "uint256",
          "name": "",
          "type": "uint256"
        }
      ],
      "stateMutability": "view",
      "type": "function"
    },
    {
      "inputs": [],
      "name": "Operator_1",
      "outputs": [],
      "stateMutability": "nonpayable",
      "type": "function"
    }
  ],
  "bytecode": "0x6080604052600560005534801561001557600080fd5b5060d4806100246000396000f3fe6080604052348015600f57600080fd5b506004361060325760003560e01c80630dbe671f146037578063f071fb91146051575b600080fd5b603d6059565b604051604891906085565b60405180910390f35b6057605f565b005b60005481565b6002600054901b600081905550565b6000819050919050565b607f81606e565b82525050565b6000602082019050609860008301846078565b9291505056fea2646970667358221220719b9b74dc8e44e8e90bcda47d9516582a18d68a5b118043e0d36ff94f67e97b64736f6c63430008090033",
  "immutableReferences": {},
  "source": "// SPDX-License-Identifier: MIT\r\npragma solidity 0.8.9;\r\n\r\n/*\r\nm_1 - 21401  \r\nm_2 - 21401 \r\nm_3 - 21341 \r\nm_4 - 26231 \r\nm_5 - 26244  \r\nm_6 - 26445\r\nm_7 - 26231\r\nm_8 - 26244 \r\nm_9 - 26416 \r\n*/\r\n\r\n// uint8 storage and setter\r\ncontract MathOperators_1 {\r\n     \r\n     function Operator_1() public {\r\n       uint256 a = 1;\r\n       a = a + 1;\r\n     }\r\n}\r\n\r\ncontract MathOperators_2 {\r\n     \r\n     function Operator_1() public {\r\n       uint256 a = 1;\r\n       a += 1;\r\n     }\r\n}\r\n\r\ncontract MathOperators_3 {\r\n     \r\n     function Operator_1() public {\r\n       uint256 a = 1;\r\n       a ++;\r\n     }\r\n}\r\n\r\ncontract MathOperators_4 {\r\n     uint256 public a = 5;\r\n     function Operator_1() public {\r\n       a = a<<2;\r\n     }\r\n}\r\n\r\ncontract MathOperators_5 {\r\n     uint256 public a = 5;\r\n     function Operator_1() public {\r\n       a <<=2;\r\n     }\r\n}\r\n\r\ncontract MathOperators_6 {\r\n     uint256 public a = 5;\r\n     function Operator_1() public {\r\n       a *= 2**2;\r\n     }\r\n}\r\n\r\ncontract MathOperators_7 {\r\n     uint256 public a = 21000000;\r\n     function Operator_1() public {\r\n       a = a>>10;\r\n     }\r\n}\r\n\r\ncontract MathOperators_8 {\r\n     uint256 public a = 21000000;\r\n     function Operator_1() public {\r\n       a >>=10;\r\n     }\r\n}\r\n\r\ncontract MathOperators_9 {\r\n     uint256 public a = 21000000;\r\n     function Operator_1() public {\r\n       a /= 2**10;\r\n     }\r\n}",
  "sourcePath": "D:/code/Consensys/joeMS/SolidityGasSamples/contracts/Functions_And_Contract_Execution/Math.sol",
  "compiler": {
    "name": "solc",
    "version": "0.8.9+commit.e5eed63a.Emscripten.clang"
  },
  "schemaVersion": "3.3.4",
  "updatedAt": "2021-11-07T00:16:40.024Z",
  "devdoc": {
    "kind": "dev",
    "methods": {},
    "version": 1
  },
  "userdoc": {
    "kind": "user",
    "methods": {},
    "version": 1
  }
}