{
  "contractName": "Structs_5",
  "abi": [
    {
      "inputs": [],
      "name": "InMemoryUsage",
      "outputs": [],
      "stateMutability": "nonpayable",
      "type": "function"
    }
  ],
  "bytecode": "0x6080604052348015600f57600080fd5b506101448061001f6000396000f3fe608060405234801561001057600080fd5b506004361061002b5760003560e01c8063700a311b14610030575b600080fd5b61003861003a565b005b6000604051806080016040528060018152602001600281526020017f610000000000000000000000000000000000000000000000000000000000000081526020017f62000000000000000000000000000000000000000000000000000000000000008152509050600181600001818152505060028160200181815250507f61000000000000000000000000000000000000000000000000000000000000008160400181815250507f62000000000000000000000000000000000000000000000000000000000000008160600181815250505056fea2646970667358221220fffdb09441d5d1df2d308fcf7b1c9917ecc6d0b5a1252ae50c0e7b9274569d4564736f6c63430008090033",
  "immutableReferences": {},
  "source": "// SPDX-License-Identifier: MIT\r\npragma solidity 0.8.9;\r\n\r\n/*\r\ns_1 - 21238 \r\ns_2 - 30175 \r\ns_3 - 30066   \r\ns_4 - 21428\r\ns_4_1 - 109925\r\ns_4_2 - 109775\r\ns_5 - 21391 \r\ns_6 - 21420 \r\ns_7 - 21435 \r\ns_8 - 21471 \r\n*/\r\n\r\ncontract Structs_1 {\r\n    \r\n     struct Test{\r\n         uint256 a;\r\n         uint256 b;\r\n         bytes32 c;\r\n         bytes32 d;\r\n     }\r\n     \r\n     function InMemoryUsage() public {\r\n         (int256 a, int256 b, bytes32 c, bytes32 d) = (1,2, \"a\",\"b\");\r\n     }\r\n}\r\n\r\ncontract Structs_2 {\r\n    \r\n    Test test;\r\n    \r\n     struct Test{\r\n         uint256 a;\r\n         uint256 b;\r\n         bytes32 c;\r\n         bytes32 d;\r\n     }\r\n     \r\n     function InMemoryUsage() public {\r\n         test = Test(1,2, \"a\",\"b\");\r\n     }\r\n}\r\n\r\ncontract Structs_3 {\r\n    Test test;\r\n    \r\n     struct Test{\r\n         uint256 a;\r\n         uint256 b;\r\n         bytes32 c;\r\n         bytes32 d;\r\n     }\r\n     \r\n     function InMemoryUsage() public {\r\n         test.a = 1;\r\n         test.b = 2;\r\n         test.c = \"a\";\r\n         test.d = \"b\";\r\n     }\r\n}\r\n\r\ncontract Structs_4 {\r\n     struct Test{\r\n         uint256 a;\r\n         uint256 b;\r\n         bytes32 c;\r\n         bytes32 d;\r\n     }\r\n     \r\n     function InMemoryUsage() public {\r\n         Test memory test;\r\n         test.a = 1;\r\n         test.b = 2;\r\n         test.c = \"a\";\r\n         test.d = \"b\";\r\n     }\r\n}\r\n\r\ncontract Structs_4_1 {\r\n    \r\n    Test testStored;\r\n    \r\n     struct Test{\r\n         uint256 a;\r\n         uint256 b;\r\n         bytes32 c;\r\n         bytes32 d;\r\n     }\r\n     \r\n     function InMemoryUsage() public {\r\n         Test memory test;\r\n         test.a = 1;\r\n         test.b = 2;\r\n         test.c = \"a\";\r\n         test.d = \"b\";\r\n         \r\n         testStored = test;\r\n     }\r\n}\r\n\r\ncontract Structs_4_2 {\r\n     struct Test{\r\n         uint256 a;\r\n         uint256 b;\r\n         bytes32 c;\r\n         bytes32 d;\r\n     }\r\n     \r\n     Test testStored;\r\n      \r\n     function InMemoryUsage() public {\r\n         testStored = Test(1,2, \"a\",\"b\");\r\n     }\r\n}\r\n\r\ncontract Structs_5 {\r\n     struct Test{\r\n         uint256 a;\r\n         uint256 b;\r\n         bytes32 c;\r\n         bytes32 d;\r\n     }\r\n     \r\n     function InMemoryUsage() public {\r\n         Test memory test = Test(1,2, \"a\",\"b\");\r\n         test.a = 1;\r\n         test.b = 2;\r\n         test.c = \"a\";\r\n         test.d = \"b\";\r\n     }\r\n}\r\n\r\ncontract Structs_6 {\r\n     struct Test{\r\n         uint256 a;\r\n         uint256 b;\r\n         bytes32 c;\r\n         bytes32 d;\r\n     }\r\n     \r\n     function InMemoryUsage() public {\r\n         Test memory test = Test(1,2, \"a\",\"b\");\r\n         test.a = 1;\r\n         test.b = 2;\r\n         test.c = \"a\";\r\n         test.d = \"b\";\r\n         \r\n         passData(test);\r\n     }\r\n     \r\n     function passData(Test memory t) private {\r\n         \r\n     }\r\n}\r\n\r\ncontract Structs_7 {\r\n     struct Test{\r\n         uint256 a;\r\n         uint256 b;\r\n         bytes32 c;\r\n         bytes32 d;\r\n     }\r\n     \r\n     function InMemoryUsage() public {\r\n         Test memory test = Test(1,2, \"a\",\"b\");\r\n         test.a = 1;\r\n         test.b = 2;\r\n         test.c = \"a\";\r\n         test.d = \"b\";\r\n         \r\n         passData(1,2,\"a\",\"b\");\r\n     }\r\n     \r\n     function passData(uint256 a, int256 b, bytes32 c, bytes32 d) private {\r\n         \r\n     }\r\n}\r\n\r\ncontract Structs_8 {\r\n     struct Test{\r\n         uint256 a;\r\n         uint256 b;\r\n         bytes32 c;\r\n         bytes32 d;\r\n     }\r\n     \r\n     function InMemoryUsage() public {\r\n         Test memory test = Test(1,2, \"a\",\"b\");\r\n         test.a = 1;\r\n         test.b = 2;\r\n         test.c = \"a\";\r\n         test.d = \"b\";\r\n         \r\n         passData(test.a,test.b,test.c,test.d);\r\n     }\r\n     \r\n     function passData(uint256 a, uint256 b, bytes32 c, bytes32 d) private {\r\n         \r\n     }\r\n}",
  "sourcePath": "D:/code/Consensys/joeMS/SolidityGasSamples/contracts/Data_Types/structs.sol",
  "compiler": {
    "name": "solc",
    "version": "0.8.9+commit.e5eed63a.Emscripten.clang"
  },
  "schemaVersion": "3.3.4",
  "updatedAt": "2021-11-07T00:16:39.903Z",
  "devdoc": {
    "kind": "dev",
    "methods": {},
    "version": 1
  },
  "userdoc": {
    "kind": "user",
    "methods": {},
    "version": 1
  }
}