{
  "contractName": "v_5",
  "abi": [
    {
      "inputs": [
        {
          "internalType": "uint256",
          "name": "b",
          "type": "uint256"
        }
      ],
      "name": "x",
      "outputs": [
        {
          "internalType": "uint256",
          "name": "varReturn",
          "type": "uint256"
        }
      ],
      "stateMutability": "nonpayable",
      "type": "function"
    }
  ],
  "bytecode": "0x608060405234801561001057600080fd5b5061011b806100206000396000f3fe6080604052348015600f57600080fd5b506004361060285760003560e01c80633f4263ef14602d575b600080fd5b60436004803603810190603f91906097565b6057565b604051604e919060cc565b60405180910390f35b6000819050919050565b600080fd5b6000819050919050565b6077816066565b8114608157600080fd5b50565b6000813590506091816070565b92915050565b60006020828403121560aa5760a96061565b5b600060b6848285016084565b91505092915050565b60c6816066565b82525050565b600060208201905060df600083018460bf565b9291505056fea2646970667358221220ee0316cbafaa250c8079bec96ae92fdb947cc12b3f52ab638ef464f7fa2424b764736f6c63430008090033",
  "immutableReferences": {},
  "source": "// SPDX-License-Identifier: MIT\r\npragma solidity 0.8.9;\r\n\r\n/*\r\nv_1 - 76975 \r\nv_2 - 76975 \r\nv_3 - 100905 \r\nv_4 - 100905\r\nv_5 - 114517 \r\nv_6 - 114517 \r\n*/\r\n\r\n// uint8 storage and setter\r\ncontract VariableNames_1 {\r\n     uint256 someMassivVariableName;\r\n\r\n     function v_1 () public {\r\n    \r\n     }\r\n}\r\n\r\ncontract v_2 {\r\n     uint256 a;\r\n     function x() public {\r\n    \r\n     }\r\n}\r\n\r\ncontract v_3 {\r\n     uint256 a;\r\n     \r\n     function x(uint256 whyLookALongName) public {\r\n    \r\n     }\r\n}\r\n\r\ncontract v_4 {\r\n     uint256 a;\r\n     function x(uint256 b) public {\r\n    \r\n     }\r\n}\r\n\r\ncontract v_5 {\r\n     uint256 a;\r\n     \r\n     function x(uint256 b) public returns (uint256 varReturn) {\r\n       varReturn = b;\r\n     }\r\n}\r\n\r\ncontract v_6 {\r\n     uint256 a;\r\n     \r\n     function x(uint256 b) public returns (uint256) {\r\n      return b;\r\n     }\r\n}",
  "sourcePath": "D:/code/Consensys/joeMS/SolidityGasSamples/contracts/Contract_Design/VariableNames.sol",
  "compiler": {
    "name": "solc",
    "version": "0.8.9+commit.e5eed63a.Emscripten.clang"
  },
  "schemaVersion": "3.3.4",
  "updatedAt": "2021-11-07T00:16:39.680Z",
  "devdoc": {
    "kind": "dev",
    "methods": {},
    "version": 1
  },
  "userdoc": {
    "kind": "user",
    "methods": {},
    "version": 1
  }
}