{
  "contractName": "VariableNames_1",
  "abi": [
    {
      "inputs": [],
      "name": "v_1",
      "outputs": [],
      "stateMutability": "nonpayable",
      "type": "function"
    }
  ],
  "bytecode": "0x6080604052348015600f57600080fd5b50606d80601d6000396000f3fe6080604052348015600f57600080fd5b506004361060285760003560e01c8063c7954f2114602d575b600080fd5b60336035565b005b56fea2646970667358221220f6e6061048fbdd62fa343eb72e51bac153c05d99886ae4ce9a88bee9009a8c7f64736f6c63430008090033",
  "immutableReferences": {},
  "source": "// SPDX-License-Identifier: MIT\r\npragma solidity 0.8.9;\r\n\r\n/*\r\nv_1 - 76975 \r\nv_2 - 76975 \r\nv_3 - 100905 \r\nv_4 - 100905\r\nv_5 - 114517 \r\nv_6 - 114517 \r\n*/\r\n\r\n// uint8 storage and setter\r\ncontract VariableNames_1 {\r\n     uint256 someMassivVariableName;\r\n\r\n     function v_1 () public {\r\n    \r\n     }\r\n}\r\n\r\ncontract v_2 {\r\n     uint256 a;\r\n     function x() public {\r\n    \r\n     }\r\n}\r\n\r\ncontract v_3 {\r\n     uint256 a;\r\n     \r\n     function x(uint256 whyLookALongName) public {\r\n    \r\n     }\r\n}\r\n\r\ncontract v_4 {\r\n     uint256 a;\r\n     function x(uint256 b) public {\r\n    \r\n     }\r\n}\r\n\r\ncontract v_5 {\r\n     uint256 a;\r\n     \r\n     function x(uint256 b) public returns (uint256 varReturn) {\r\n       varReturn = b;\r\n     }\r\n}\r\n\r\ncontract v_6 {\r\n     uint256 a;\r\n     \r\n     function x(uint256 b) public returns (uint256) {\r\n      return b;\r\n     }\r\n}",
  "sourcePath": "D:/code/Consensys/joeMS/SolidityGasSamples/contracts/Contract_Design/VariableNames.sol",
  "compiler": {
    "name": "solc",
    "version": "0.8.9+commit.e5eed63a.Emscripten.clang"
  },
  "schemaVersion": "3.3.4",
  "updatedAt": "2021-11-07T00:16:39.670Z",
  "devdoc": {
    "kind": "dev",
    "methods": {},
    "version": 1
  },
  "userdoc": {
    "kind": "user",
    "methods": {},
    "version": 1
  }
}